{
  "_format": "hh-sol-artifact-1",
  "contractName": "TaskContract",
  "sourceName": "contracts/TaskContract.sol",
  "abi": [
    {
      "anonymous": false,
      "inputs": [
        {
          "indexed": false,
          "internalType": "address",
          "name": "recipient",
          "type": "address"
        },
        {
          "indexed": false,
          "internalType": "uint256",
          "name": "taskId",
          "type": "uint256"
        }
      ],
      "name": "AddBids",
      "type": "event"
    },
    {
      "anonymous": false,
      "inputs": [
        {
          "indexed": false,
          "internalType": "uint256",
          "name": "taskId",
          "type": "uint256"
        },
        {
          "indexed": false,
          "internalType": "bool",
          "name": "isDeleted",
          "type": "bool"
        }
      ],
      "name": "DeleteTask",
      "type": "event"
    },
    {
      "inputs": [
        {
          "internalType": "string",
          "name": "askingAmount",
          "type": "string"
        },
        {
          "internalType": "string",
          "name": "spread",
          "type": "string"
        },
        {
          "internalType": "bool",
          "name": "isDeleted",
          "type": "bool"
        }
      ],
      "name": "addBids",
      "outputs": [],
      "stateMutability": "nonpayable",
      "type": "function"
    },
    {
      "inputs": [
        {
          "internalType": "uint256",
          "name": "taskId",
          "type": "uint256"
        },
        {
          "internalType": "bool",
          "name": "isDeleted",
          "type": "bool"
        }
      ],
      "name": "deleteTask",
      "outputs": [],
      "stateMutability": "nonpayable",
      "type": "function"
    },
    {
      "inputs": [],
      "name": "getMyTasks",
      "outputs": [
        {
          "components": [
            {
              "internalType": "uint256",
              "name": "id",
              "type": "uint256"
            },
            {
              "internalType": "address",
              "name": "username",
              "type": "address"
            },
            {
              "internalType": "string",
              "name": "askingAmount",
              "type": "string"
            },
            {
              "internalType": "string",
              "name": "spread",
              "type": "string"
            },
            {
              "internalType": "bool",
              "name": "isDeleted",
              "type": "bool"
            }
          ],
          "internalType": "struct TaskContract.Task[]",
          "name": "",
          "type": "tuple[]"
        }
      ],
      "stateMutability": "view",
      "type": "function"
    }
  ],
  "bytecode": "0x608060405234801561001057600080fd5b50610f64806100206000396000f3fe608060405234801561001057600080fd5b50600436106100415760003560e01c80636e13f81814610046578063aaba290714610064578063c033ab7914610080575b600080fd5b61004e61009c565b60405161005b9190610c36565b60405180910390f35b61007e60048036038101906100799190610a38565b610584565b005b61009a600480360381019061009591906109b9565b61068c565b005b60606000808054905067ffffffffffffffff8111156100e4577f4e487b7100000000000000000000000000000000000000000000000000000000600052604160045260246000fd5b60405190808252806020026020018201604052801561011d57816020015b61010a61083d565b8152602001906001900390816101025790505b5090506000805b600080549050811015610458573373ffffffffffffffffffffffffffffffffffffffff166001600083815260200190815260200160002060009054906101000a900473ffffffffffffffffffffffffffffffffffffffff1673ffffffffffffffffffffffffffffffffffffffff161480156101fb575060001515600082815481106101d8577f4e487b7100000000000000000000000000000000000000000000000000000000600052603260045260246000fd5b906000526020600020906005020160040160009054906101000a900460ff161515145b15610445576000818154811061023a577f4e487b7100000000000000000000000000000000000000000000000000000000600052603260045260246000fd5b90600052602060002090600502016040518060a0016040529081600082015481526020016001820160009054906101000a900473ffffffffffffffffffffffffffffffffffffffff1673ffffffffffffffffffffffffffffffffffffffff1673ffffffffffffffffffffffffffffffffffffffff1681526020016002820180546102c390610db6565b80601f01602080910402602001604051908101604052809291908181526020018280546102ef90610db6565b801561033c5780601f106103115761010080835404028352916020019161033c565b820191906000526020600020905b81548152906001019060200180831161031f57829003601f168201915b5050505050815260200160038201805461035590610db6565b80601f016020809104026020016040519081016040528092919081815260200182805461038190610db6565b80156103ce5780601f106103a3576101008083540402835291602001916103ce565b820191906000526020600020905b8154815290600101906020018083116103b157829003601f168201915b505050505081526020016004820160009054906101000a900460ff16151515158152505083838151811061042b577f4e487b7100000000000000000000000000000000000000000000000000000000600052603260045260246000fd5b6020026020010181905250818061044190610e19565b9250505b808061045090610e19565b915050610124565b5060008167ffffffffffffffff81111561049b577f4e487b7100000000000000000000000000000000000000000000000000000000600052604160045260246000fd5b6040519080825280602002602001820160405280156104d457816020015b6104c161083d565b8152602001906001900390816104b95790505b50905060005b8281101561057a5783818151811061051b577f4e487b7100000000000000000000000000000000000000000000000000000000600052603260045260246000fd5b602002602001015182828151811061055c577f4e487b7100000000000000000000000000000000000000000000000000000000600052603260045260246000fd5b6020026020010181905250808061057290610e19565b9150506104da565b5080935050505090565b3373ffffffffffffffffffffffffffffffffffffffff166001600084815260200190815260200160002060009054906101000a900473ffffffffffffffffffffffffffffffffffffffff1673ffffffffffffffffffffffffffffffffffffffff161415610688578060008381548110610626577f4e487b7100000000000000000000000000000000000000000000000000000000600052603260045260246000fd5b906000526020600020906005020160040160006101000a81548160ff0219169083151502179055507ff88a35c3d2016c409a46570b994a17b408dbc83c14a03f521512d50b85386d06828260405161067f929190610c58565b60405180910390a15b5050565b60008080549050905060006040518060a001604052808381526020013373ffffffffffffffffffffffffffffffffffffffff16815260200186815260200185815260200184151581525090806001815401808255809150506001900390600052602060002090600502016000909190919091506000820151816000015560208201518160010160006101000a81548173ffffffffffffffffffffffffffffffffffffffff021916908373ffffffffffffffffffffffffffffffffffffffff160217905550604082015181600201908051906020019061076c929190610884565b506060820151816003019080519060200190610789929190610884565b5060808201518160040160006101000a81548160ff0219169083151502179055505050336001600083815260200190815260200160002060006101000a81548173ffffffffffffffffffffffffffffffffffffffff021916908373ffffffffffffffffffffffffffffffffffffffff1602179055507f09943e9e11e2078eb8c7c223b4c4c126ffe33d72c0131f757980178b1a3e4b06338260405161082f929190610c0d565b60405180910390a150505050565b6040518060a0016040528060008152602001600073ffffffffffffffffffffffffffffffffffffffff16815260200160608152602001606081526020016000151581525090565b82805461089090610db6565b90600052602060002090601f0160209004810192826108b257600085556108f9565b82601f106108cb57805160ff19168380011785556108f9565b828001600101855582156108f9579182015b828111156108f85782518255916020019190600101906108dd565b5b509050610906919061090a565b5090565b5b8082111561092357600081600090555060010161090b565b5090565b600061093a61093584610ca6565b610c81565b90508281526020810184848401111561095257600080fd5b61095d848285610d74565b509392505050565b60008135905061097481610f00565b92915050565b600082601f83011261098b57600080fd5b813561099b848260208601610927565b91505092915050565b6000813590506109b381610f17565b92915050565b6000806000606084860312156109ce57600080fd5b600084013567ffffffffffffffff8111156109e857600080fd5b6109f48682870161097a565b935050602084013567ffffffffffffffff811115610a1157600080fd5b610a1d8682870161097a565b9250506040610a2e86828701610965565b9150509250925092565b60008060408385031215610a4b57600080fd5b6000610a59858286016109a4565b9250506020610a6a85828601610965565b9150509250929050565b6000610a808383610b72565b905092915050565b610a9181610d2c565b82525050565b610aa081610d2c565b82525050565b6000610ab182610ce7565b610abb8185610d0a565b935083602082028501610acd85610cd7565b8060005b85811015610b095784840389528151610aea8582610a74565b9450610af583610cfd565b925060208a01995050600181019050610ad1565b50829750879550505050505092915050565b610b2481610d3e565b82525050565b610b3381610d3e565b82525050565b6000610b4482610cf2565b610b4e8185610d1b565b9350610b5e818560208601610d83565b610b6781610eef565b840191505092915050565b600060a083016000830151610b8a6000860182610bef565b506020830151610b9d6020860182610a88565b5060408301518482036040860152610bb58282610b39565b91505060608301518482036060860152610bcf8282610b39565b9150506080830151610be46080860182610b1b565b508091505092915050565b610bf881610d6a565b82525050565b610c0781610d6a565b82525050565b6000604082019050610c226000830185610a97565b610c2f6020830184610bfe565b9392505050565b60006020820190508181036000830152610c508184610aa6565b905092915050565b6000604082019050610c6d6000830185610bfe565b610c7a6020830184610b2a565b9392505050565b6000610c8b610c9c565b9050610c978282610de8565b919050565b6000604051905090565b600067ffffffffffffffff821115610cc157610cc0610ec0565b5b610cca82610eef565b9050602081019050919050565b6000819050602082019050919050565b600081519050919050565b600081519050919050565b6000602082019050919050565b600082825260208201905092915050565b600082825260208201905092915050565b6000610d3782610d4a565b9050919050565b60008115159050919050565b600073ffffffffffffffffffffffffffffffffffffffff82169050919050565b6000819050919050565b82818337600083830152505050565b60005b83811015610da1578082015181840152602081019050610d86565b83811115610db0576000848401525b50505050565b60006002820490506001821680610dce57607f821691505b60208210811415610de257610de1610e91565b5b50919050565b610df182610eef565b810181811067ffffffffffffffff82111715610e1057610e0f610ec0565b5b80604052505050565b6000610e2482610d6a565b91507fffffffffffffffffffffffffffffffffffffffffffffffffffffffffffffffff821415610e5757610e56610e62565b5b600182019050919050565b7f4e487b7100000000000000000000000000000000000000000000000000000000600052601160045260246000fd5b7f4e487b7100000000000000000000000000000000000000000000000000000000600052602260045260246000fd5b7f4e487b7100000000000000000000000000000000000000000000000000000000600052604160045260246000fd5b6000601f19601f8301169050919050565b610f0981610d3e565b8114610f1457600080fd5b50565b610f2081610d6a565b8114610f2b57600080fd5b5056fea264697066735822122064e0dc4c420483cebc6fcf8aff4703660a522f774395fa45235543ebdacd391564736f6c63430008040033",
  "linkReferences": {},
  "deployedLinkReferences": {}
}